{
  "abi": [
    {
      "inputs": [
        {
          "internalType": "uint256",
          "name": "_whitelistPeriod",
          "type": "uint256"
        }
      ],
      "stateMutability": "nonpayable",
      "type": "constructor"
    },
    {
      "anonymous": false,
      "inputs": [
        {
          "indexed": true,
          "internalType": "address",
          "name": "wallet",
          "type": "address"
        },
        {
          "indexed": true,
          "internalType": "address",
          "name": "target",
          "type": "address"
        },
        {
          "indexed": false,
          "internalType": "uint64",
          "name": "whitelistAfter",
          "type": "uint64"
        }
      ],
      "name": "AddedToWhitelist",
      "type": "event"
    },
    {
      "anonymous": false,
      "inputs": [
        {
          "indexed": true,
          "internalType": "address",
          "name": "wallet",
          "type": "address"
        },
        {
          "indexed": true,
          "internalType": "address",
          "name": "target",
          "type": "address"
        }
      ],
      "name": "RemovedFromWhitelist",
      "type": "event"
    },
    {
      "anonymous": false,
      "inputs": [
        {
          "indexed": false,
          "internalType": "bytes32",
          "name": "name",
          "type": "bytes32"
        }
      ],
      "name": "ServiceCreated",
      "type": "event"
    },
    {
      "inputs": [
        {
          "internalType": "address",
          "name": "_wallet",
          "type": "address"
        },
        {
          "internalType": "address",
          "name": "_target",
          "type": "address"
        }
      ],
      "name": "addToWhitelist",
      "outputs": [],
      "stateMutability": "nonpayable",
      "type": "function"
    },
    {
      "inputs": [
        {
          "internalType": "address",
          "name": "_wallet",
          "type": "address"
        },
        {
          "components": [
            {
              "internalType": "address",
              "name": "to",
              "type": "address"
            },
            {
              "internalType": "uint256",
              "name": "value",
              "type": "uint256"
            },
            {
              "internalType": "bytes",
              "name": "data",
              "type": "bytes"
            }
          ],
          "internalType": "struct TransactionControlService.Call[]",
          "name": "_transactions",
          "type": "tuple[]"
        }
      ],
      "name": "batchCall",
      "outputs": [
        {
          "internalType": "bytes[]",
          "name": "",
          "type": "bytes[]"
        }
      ],
      "stateMutability": "nonpayable",
      "type": "function"
    },
    {
      "inputs": [
        {
          "internalType": "address",
          "name": "_wallet",
          "type": "address"
        },
        {
          "internalType": "address",
          "name": "_target",
          "type": "address"
        }
      ],
      "name": "removeFromWhitelist",
      "outputs": [],
      "stateMutability": "nonpayable",
      "type": "function"
    }
  ],
  "bytecode": {
    "object": "0x60c060405234801561001057600080fd5b50604051610f8e380380610f8e83398101604081905261002f91610096565b7f5472616e73616374696f6e436f6e74726f6c53657276696365000000000000007f76a98a2b6f3323c578204e1aadf34f8bbd93a08e7222d8987118c5aa21ff5cc38160405161008191815260200190565b60405180910390a15060a052306080526100af565b6000602082840312156100a857600080fd5b5051919050565b60805160a051610eb36100db60003960006101b601526000818161071f01526107d10152610eb36000f3fe608060405234801561001057600080fd5b50600436106100415760003560e01c80635751824314610046578063a64714351461005b578063f8d3277d14610084575b600080fd5b610059610054366004610a61565b610097565b005b61006e610069366004610a9a565b61023c565b60405161007b9190610b72565b60405180910390f35b610059610092366004610a61565b610565565b81303314806100ab57506100ab813361060e565b6100d05760405162461bcd60e51b81526004016100c790610bd4565b60405180910390fd5b826100da8161068f565b156100f75760405162461bcd60e51b81526004016100c790610c0b565b836001600160a01b0316836001600160a01b0316036101585760405162461bcd60e51b815260206004820152601760248201527f43616e6e6f742077686974656c6973742077616c6c657400000000000000000060448201526064016100c7565b61016284846106f3565b156101af5760405162461bcd60e51b815260206004820152601a60248201527f54617267657420616c72656164792077686974656c697374656400000000000060448201526064016100c7565b60006101db7f000000000000000000000000000000000000000000000000000000000000000042610c4c565b90506101e88585836107a3565b60405167ffffffffffffffff821681526001600160a01b0380861691908716907f1f57f9641d3e8733ed672fef5ac85464bd7215ef2f21e83428e8408248b13dcd9060200160405180910390a35050505050565b606083303314806102525750610252813361060e565b61026e5760405162461bcd60e51b81526004016100c790610bd4565b846102788161068f565b156102955760405162461bcd60e51b81526004016100c790610c0b565b60008467ffffffffffffffff8111156102b0576102b0610c5f565b6040519080825280602002602001820160405280156102e357816020015b60608152602001906001900390816102ce5790505b50905060005b8581101561055a57600061039488888481811061030857610308610c75565b905060200281019061031a9190610c8b565b610328906020810190610cab565b89898581811061033a5761033a610c75565b905060200281019061034c9190610c8b565b61035a906040810190610ccf565b8080601f01602080910402602001604051908101604052809392919081815260200183838082843760009201919091525061083292505050565b90508787838181106103a8576103a8610c75565b90506020028101906103ba9190610c8b565b60200135158061040c57508787838181106103d7576103d7610c75565b90506020028101906103e99190610c8b565b6103f7906020810190610cab565b6001600160a01b0316816001600160a01b0316145b801561041d575061041d89826106f3565b61045f5760405162461bcd60e51b815260206004820152601360248201527210d85b1b081b9bdd08185d5d1a1bdc9a5cd959606a1b60448201526064016100c7565b6105298989898581811061047557610475610c75565b90506020028101906104879190610c8b565b610495906020810190610cab565b8a8a868181106104a7576104a7610c75565b90506020028101906104b99190610c8b565b602001358b8b878181106104cf576104cf610c75565b90506020028101906104e19190610c8b565b6104ef906040810190610ccf565b8080601f01602080910402602001604051908101604052809392919081815260200183838082843760009201919091525061091c92505050565b83838151811061053b5761053b610c75565b602002602001018190525050808061055290610d1d565b9150506102e9565b509695505050505050565b81303314806105795750610579813361060e565b6105955760405162461bcd60e51b81526004016100c790610bd4565b8261059f8161068f565b156105bc5760405162461bcd60e51b81526004016100c790610c0b565b6105c8848460006107a3565b826001600160a01b0316846001600160a01b03167fd288ab5da2e1f37cf384a1565a3f905ad289b092fbdd31950dbbfef148c04f8860405160405180910390a350505050565b6000816001600160a01b0316836001600160a01b0316638da5cb5b6040518163ffffffff1660e01b8152600401602060405180830381865afa158015610658573d6000803e3d6000fd5b505050506040513d601f19601f8201168201806040525081019061067c9190610d36565b6001600160a01b03161490505b92915050565b6000816001600160a01b031663cf3090126040518163ffffffff1660e01b8152600401602060405180830381865afa1580156106cf573d6000803e3d6000fd5b505050506040513d601f19601f820116820180604052508101906106899190610d53565b60405163a10cda9960e01b81526001600160a01b038381166004830152828116602483015260009182917f0000000000000000000000000000000000000000000000000000000000000000169063a10cda9990604401602060405180830381865afa158015610766573d6000803e3d6000fd5b505050506040513d601f19601f8201168201806040525081019061078a9190610d75565b905060008111801561079b57504281105b949350505050565b60405163e09e83e360e01b81526001600160a01b0384811660048301528381166024830152604482018390527f0000000000000000000000000000000000000000000000000000000000000000169063e09e83e390606401600060405180830381600087803b15801561081557600080fd5b505af1158015610829573d6000803e3d6000fd5b50505050505050565b600060448251106109155760208201516001600160e01b0319811663a9059cbb60e01b148061087157506001600160e01b0319811663095ea7b360e01b145b8061088c57506001600160e01b0319811663a22cb46560e01b145b1561089d5750506024810151610689565b6001600160e01b031981166323b872dd60e01b14806108cc57506001600160e01b03198116632142170760e11b145b806108e757506001600160e01b03198116635c46a7ef60e11b145b8061090257506001600160e01b03198116637921219560e11b145b156109135750506044810151610689565b505b5090919050565b60606000856001600160a01b031685858560405160240161093f93929190610d8e565b60408051601f198184030181529181526020820180516001600160e01b03166347b7819960e11b179052516109749190610dbe565b6000604051808303816000865af19150503d80600081146109b1576040519150601f19603f3d011682016040523d82523d6000602084013e6109b6565b606091505b50925090508080156109c9575060008251115b156109e957818060200190518101906109e29190610dd0565b9150610a40565b8151156109fa573d6000803e3d6000fd5b80610a405760405162461bcd60e51b815260206004820152601660248201527515d85b1b195d081a5b9d9bdad9481c995d995c9d195960521b60448201526064016100c7565b50949350505050565b6001600160a01b0381168114610a5e57600080fd5b50565b60008060408385031215610a7457600080fd5b8235610a7f81610a49565b91506020830135610a8f81610a49565b809150509250929050565b600080600060408486031215610aaf57600080fd5b8335610aba81610a49565b9250602084013567ffffffffffffffff80821115610ad757600080fd5b818601915086601f830112610aeb57600080fd5b813581811115610afa57600080fd5b8760208260051b8501011115610b0f57600080fd5b6020830194508093505050509250925092565b60005b83811015610b3d578181015183820152602001610b25565b50506000910152565b60008151808452610b5e816020860160208601610b22565b601f01601f19169290920160200192915050565b6000602080830181845280855180835260408601915060408160051b870101925083870160005b82811015610bc757603f19888603018452610bb5858351610b46565b94509285019290850190600101610b99565b5092979650505050505050565b60208082526019908201527f4d7573742062652077616c6c6574206f776e65722f73656c6600000000000000604082015260600190565b60208082526011908201527010934e881dd85b1b195d081b1bd8dad959607a1b604082015260600190565b634e487b7160e01b600052601160045260246000fd5b8082018082111561068957610689610c36565b634e487b7160e01b600052604160045260246000fd5b634e487b7160e01b600052603260045260246000fd5b60008235605e19833603018112610ca157600080fd5b9190910192915050565b600060208284031215610cbd57600080fd5b8135610cc881610a49565b9392505050565b6000808335601e19843603018112610ce657600080fd5b83018035915067ffffffffffffffff821115610d0157600080fd5b602001915036819003821315610d1657600080fd5b9250929050565b600060018201610d2f57610d2f610c36565b5060010190565b600060208284031215610d4857600080fd5b8151610cc881610a49565b600060208284031215610d6557600080fd5b81518015158114610cc857600080fd5b600060208284031215610d8757600080fd5b5051919050565b60018060a01b0384168152826020820152606060408201526000610db56060830184610b46565b95945050505050565b60008251610ca1818460208701610b22565b600060208284031215610de257600080fd5b815167ffffffffffffffff80821115610dfa57600080fd5b818401915084601f830112610e0e57600080fd5b815181811115610e2057610e20610c5f565b604051601f8201601f19908116603f01168101908382118183101715610e4857610e48610c5f565b81604052828152876020848701011115610e6157600080fd5b610e72836020830160208801610b22565b97965050505050505056fea264697066735822122098cc636847a7e1f25bec5d08a3ab35c35f5f835fbdf43254eef55fd91c10ff7264736f6c63430008110033",
    "linkReferences": {}
  },
  "methodIdentifiers": {
    "addToWhitelist(address,address)": "57518243",
    "batchCall(address,(address,uint256,bytes)[])": "a6471435",
    "removeFromWhitelist(address,address)": "f8d3277d"
  },
  "id": 14
}