{
  "abi": [
    {
      "inputs": [
        {
          "internalType": "address[]",
          "name": "_services",
          "type": "address[]"
        },
        {
          "internalType": "string",
          "name": "_name",
          "type": "string"
        }
      ],
      "stateMutability": "nonpayable",
      "type": "constructor"
    },
    {
      "anonymous": false,
      "inputs": [
        {
          "indexed": true,
          "internalType": "address",
          "name": "_service",
          "type": "address"
        },
        {
          "indexed": true,
          "internalType": "address",
          "name": "target",
          "type": "address"
        },
        {
          "indexed": true,
          "internalType": "uint256",
          "name": "value",
          "type": "uint256"
        },
        {
          "indexed": false,
          "internalType": "bytes",
          "name": "data",
          "type": "bytes"
        }
      ],
      "name": "Invoked",
      "type": "event"
    },
    {
      "anonymous": false,
      "inputs": [
        {
          "indexed": true,
          "internalType": "address",
          "name": "previousOwner",
          "type": "address"
        },
        {
          "indexed": true,
          "internalType": "address",
          "name": "newOwner",
          "type": "address"
        }
      ],
      "name": "OwnershipTransferred",
      "type": "event"
    },
    {
      "anonymous": false,
      "inputs": [
        {
          "indexed": true,
          "internalType": "address",
          "name": "service",
          "type": "address"
        }
      ],
      "name": "ServiceAuthorised",
      "type": "event"
    },
    {
      "anonymous": false,
      "inputs": [
        {
          "indexed": true,
          "internalType": "address",
          "name": "service",
          "type": "address"
        }
      ],
      "name": "ServiceRevoked",
      "type": "event"
    },
    {
      "stateMutability": "payable",
      "type": "fallback"
    },
    {
      "inputs": [
        {
          "internalType": "address",
          "name": "_service",
          "type": "address"
        }
      ],
      "name": "addService",
      "outputs": [],
      "stateMutability": "nonpayable",
      "type": "function"
    },
    {
      "inputs": [
        {
          "internalType": "address",
          "name": "",
          "type": "address"
        }
      ],
      "name": "authorised",
      "outputs": [
        {
          "internalType": "bool",
          "name": "",
          "type": "bool"
        }
      ],
      "stateMutability": "view",
      "type": "function"
    },
    {
      "inputs": [
        {
          "internalType": "bytes4",
          "name": "_signature",
          "type": "bytes4"
        }
      ],
      "name": "callEnabled",
      "outputs": [
        {
          "internalType": "address",
          "name": "",
          "type": "address"
        }
      ],
      "stateMutability": "view",
      "type": "function"
    },
    {
      "inputs": [
        {
          "internalType": "address",
          "name": "_service",
          "type": "address"
        },
        {
          "internalType": "bytes4",
          "name": "",
          "type": "bytes4"
        }
      ],
      "name": "enableStaticCall",
      "outputs": [],
      "stateMutability": "nonpayable",
      "type": "function"
    },
    {
      "inputs": [
        {
          "internalType": "address",
          "name": "_owner",
          "type": "address"
        },
        {
          "internalType": "address[]",
          "name": "_services",
          "type": "address[]"
        }
      ],
      "name": "init",
      "outputs": [],
      "stateMutability": "nonpayable",
      "type": "function"
    },
    {
      "inputs": [],
      "name": "initialised",
      "outputs": [
        {
          "internalType": "bool",
          "name": "",
          "type": "bool"
        }
      ],
      "stateMutability": "view",
      "type": "function"
    },
    {
      "inputs": [
        {
          "internalType": "address",
          "name": "_target",
          "type": "address"
        },
        {
          "internalType": "uint256",
          "name": "_value",
          "type": "uint256"
        },
        {
          "internalType": "bytes",
          "name": "_data",
          "type": "bytes"
        }
      ],
      "name": "invoke",
      "outputs": [
        {
          "internalType": "bytes",
          "name": "_result",
          "type": "bytes"
        }
      ],
      "stateMutability": "nonpayable",
      "type": "function"
    },
    {
      "inputs": [
        {
          "internalType": "bool",
          "name": "_lock",
          "type": "bool"
        }
      ],
      "name": "lock",
      "outputs": [],
      "stateMutability": "nonpayable",
      "type": "function"
    },
    {
      "inputs": [],
      "name": "locked",
      "outputs": [
        {
          "internalType": "bool",
          "name": "",
          "type": "bool"
        }
      ],
      "stateMutability": "view",
      "type": "function"
    },
    {
      "inputs": [],
      "name": "name",
      "outputs": [
        {
          "internalType": "string",
          "name": "",
          "type": "string"
        }
      ],
      "stateMutability": "view",
      "type": "function"
    },
    {
      "inputs": [],
      "name": "owner",
      "outputs": [
        {
          "internalType": "address",
          "name": "",
          "type": "address"
        }
      ],
      "stateMutability": "view",
      "type": "function"
    },
    {
      "inputs": [
        {
          "internalType": "address",
          "name": "_service",
          "type": "address"
        }
      ],
      "name": "revokeService",
      "outputs": [],
      "stateMutability": "nonpayable",
      "type": "function"
    },
    {
      "inputs": [],
      "name": "services",
      "outputs": [
        {
          "internalType": "uint256",
          "name": "",
          "type": "uint256"
        }
      ],
      "stateMutability": "view",
      "type": "function"
    },
    {
      "inputs": [],
      "name": "staticCallExecutor",
      "outputs": [
        {
          "internalType": "address",
          "name": "",
          "type": "address"
        }
      ],
      "stateMutability": "view",
      "type": "function"
    },
    {
      "inputs": [
        {
          "internalType": "address",
          "name": "_newOwner",
          "type": "address"
        }
      ],
      "name": "transferOwner",
      "outputs": [],
      "stateMutability": "nonpayable",
      "type": "function"
    },
    {
      "stateMutability": "payable",
      "type": "receive"
    }
  ],
  "bytecode": {
    "object": "0x60806040523480156200001157600080fd5b50604051620013f8380380620013f8833981016040819052620000349162000251565b60028054835160019081556001600160a81b0319909116336101000260ff1916171790556004620000668282620003d2565b5060005b8251811015620001345760016000808584815181106200008e576200008e6200049e565b60200260200101516001600160a01b03166001600160a01b0316815260200190815260200160002060006101000a81548160ff021916908315150217905550828181518110620000e257620000e26200049e565b60200260200101516001600160a01b03167f24f732a5a9a2087f84e34d6370d03476ac85bbecaf33f9559b7c50d1a6b1bbc560405160405180910390a2806200012b81620004b4565b9150506200006a565b506002546040516101009091046001600160a01b0316906000907f8be0079c531659141344cd1fd0a4f28419497f9722a3daafe3b4186f6b6457e0908290a35050620004dc565b634e487b7160e01b600052604160045260246000fd5b604051601f8201601f191681016001600160401b0381118282101715620001bc57620001bc6200017b565b604052919050565b600082601f830112620001d657600080fd5b81516001600160401b03811115620001f257620001f26200017b565b602062000208601f8301601f1916820162000191565b82815285828487010111156200021d57600080fd5b60005b838110156200023d57858101830151828201840152820162000220565b506000928101909101919091529392505050565b600080604083850312156200026557600080fd5b82516001600160401b03808211156200027d57600080fd5b818501915085601f8301126200029257600080fd5b8151602082821115620002a957620002a96200017b565b8160051b620002ba82820162000191565b928352848101820192828101908a851115620002d557600080fd5b958301955b848710156200030f57865192506001600160a01b0383168314620002fe5760008081fd5b8282529583019590830190620002da565b92890151929750919450505050808211156200032a57600080fd5b506200033985828601620001c4565b9150509250929050565b600181811c908216806200035857607f821691505b6020821081036200037957634e487b7160e01b600052602260045260246000fd5b50919050565b601f821115620003cd57600081815260208120601f850160051c81016020861015620003a85750805b601f850160051c820191505b81811015620003c957828155600101620003b4565b5050505b505050565b81516001600160401b03811115620003ee57620003ee6200017b565b6200040681620003ff845462000343565b846200037f565b602080601f8311600181146200043e5760008415620004255750858301515b600019600386901b1c1916600185901b178555620003c9565b600085815260208120601f198616915b828110156200046f578886015182559484019460019091019084016200044e565b50858210156200048e5787850151600019600388901b60f8161c191681555b5050505050600190811b01905550565b634e487b7160e01b600052603260045260246000fd5b600060018201620004d557634e487b7160e01b600052601160045260246000fd5b5060010190565b610f0c80620004ec6000396000f3fe6080604052600436106100ec5760003560e01c80636e474be71161008a578063a31fb7a211610059578063a31fb7a21461033b578063cf3090121461035b578063d6eb1bbf14610375578063dbada580146103a5576100f3565b80636e474be71461029a5780637b2b30e3146102d25780638da5cb5b146102f65780638f6f03321461031b576100f3565b806313da30b2116100c657806313da30b21461021a5780633c5a3cea1461023a5780634fb2e45d1461025a5780635372a9ce1461027a576100f3565b806306fdde03146101a557806307003bb4146101d05780630dd0a042146101fa576100f3565b366100f357005b600061010a6000356001600160e01b0319166103c5565b90506001600160a01b038116156101a3576001600160a01b03811660009081526020819052604090205460ff1661017f5760405162461bcd60e51b8152602060048201526014602482015273556e617574686f72697a6564207365727669636560601b60448201526064015b60405180910390fd5b3660008037600080366000845afa3d6000803e80801561019e573d6000f35b3d6000fd5b005b3480156101b157600080fd5b506101ba610464565b6040516101c79190610bbb565b60405180910390f35b3480156101dc57600080fd5b506002546101ea9060ff1681565b60405190151581526020016101c7565b34801561020657600080fd5b506101a3610215366004610be6565b6104f2565b34801561022657600080fd5b506101a3610235366004610c37565b610534565b34801561024657600080fd5b506101a3610255366004610c6a565b610617565b34801561026657600080fd5b506101a3610275366004610cf0565b610769565b34801561028657600080fd5b506101a3610295366004610cf0565b61083c565b3480156102a657600080fd5b506003546102ba906001600160a01b031681565b6040516001600160a01b0390911681526020016101c7565b3480156102de57600080fd5b506102e860015481565b6040519081526020016101c7565b34801561030257600080fd5b506002546102ba9061010090046001600160a01b031681565b34801561032757600080fd5b506101ba610336366004610d0b565b61093a565b34801561034757600080fd5b506102ba610356366004610d92565b6103c5565b34801561036757600080fd5b506005546101ea9060ff1681565b34801561038157600080fd5b506101ea610390366004610cf0565b60006020819052908152604090205460ff1681565b3480156103b157600080fd5b506101a36103c0366004610cf0565b610a36565b6003546000906001600160a01b03168015801590610450575060405163096d424d60e21b81526001600160e01b0319841660048201526001600160a01b038216906325b5093490602401602060405180830381865afa15801561042c573d6000803e3d6000fd5b505050506040513d601f19601f820116820180604052508101906104509190610dad565b1561045b5792915050565b50600092915050565b6004805461047190610dca565b80601f016020809104026020016040519081016040528092919081815260200182805461049d90610dca565b80156104ea5780601f106104bf576101008083540402835291602001916104ea565b820191906000526020600020905b8154815290600101906020018083116104cd57829003601f168201915b505050505081565b3360009081526020819052604090205460ff166105215760405162461bcd60e51b815260040161017690610e04565b6005805460ff1916911515919091179055565b3360009081526020819052604090205460ff166105635760405162461bcd60e51b815260040161017690610e04565b6003546001600160a01b038381169116146105f4576001600160a01b03821660009081526020819052604090205460ff166105d85760405162461bcd60e51b81526020600482015260156024820152742ab730baba3437b934bd32b21032bc32b1baba37b960591b6044820152606401610176565b600380546001600160a01b0319166001600160a01b0384161790555b50600380546001600160a01b0319166001600160a01b0392909216919091179055565b60025460ff1615801561062a5750600154155b6106765760405162461bcd60e51b815260206004820152601a60248201527f57616c6c657420616c726561647920696e697469616c697365640000000000006044820152606401610176565b6002805460ff1916600190811790915581905560005b8181101561072d5730635372a9ce8484848181106106ac576106ac610e3b565b90506020020160208101906106c19190610cf0565b6040516001600160e01b031960e084901b1681526001600160a01b039091166004820152602401600060405180830381600087803b15801561070257600080fd5b505af1158015610716573d6000803e3d6000fd5b50505050808061072590610e67565b91505061068c565b506040516001600160a01b038416906000907f8be0079c531659141344cd1fd0a4f28419497f9722a3daafe3b4186f6b6457e0908290a3505050565b3360009081526020819052604090205460ff166107985760405162461bcd60e51b815260040161017690610e04565b6001600160a01b0381166107e05760405162461bcd60e51b815260206004820152600f60248201526e496e76616c6964206164647265737360881b6044820152606401610176565b60028054610100600160a81b0319166101006001600160a01b03848116828102939093179384905560405192939190910416907f8be0079c531659141344cd1fd0a4f28419497f9722a3daafe3b4186f6b6457e090600090a350565b3360009081526020819052604090205460ff1661086b5760405162461bcd60e51b815260040161017690610e04565b6001600160a01b03811660009081526020819052604090205460ff16156108cc5760405162461bcd60e51b815260206004820152601560248201527414d95c9d9a58d948185b1c9958591e481859191959605a1b6044820152606401610176565b6001600160a01b0381166000908152602081905260408120805460ff191660019081179091558054916108fe83610e67565b90915550506040516001600160a01b038216907f24f732a5a9a2087f84e34d6370d03476ac85bbecaf33f9559b7c50d1a6b1bbc590600090a250565b3360009081526020819052604090205460609060ff1661096c5760405162461bcd60e51b815260040161017690610e04565b6000856001600160a01b0316858585604051610989929190610e80565b60006040518083038185875af1925050503d80600081146109c6576040519150601f19603f3d011682016040523d82523d6000602084013e6109cb565b606091505b5092509050806109df573d6000803e3d6000fd5b84866001600160a01b0316336001600160a01b03167f7d2476ab50663f025cff0be85655bcf355f62768615c0c478f3cd5293f8073658787604051610a25929190610e90565b60405180910390a450949350505050565b3360009081526020819052604090205460ff16610a655760405162461bcd60e51b815260040161017690610e04565b6001600160a01b03811660009081526020819052604090205460ff16610ac15760405162461bcd60e51b815260206004820152601160248201527014d95c9d9a58d9481b9bdd081859191959607a1b6044820152606401610176565b600060015411610b0b5760405162461bcd60e51b81526020600482015260156024820152744e6f20736572766963657320746f207265766f6b6560581b6044820152606401610176565b6001600160a01b0381166000908152602081905260408120805460ff191690556001805491610b3983610ebf565b90915550506040516001600160a01b038216907f7b6f146cbceaa98ba4b1c6416d823b72bb87cd8ca9009ff4bda62998e7e9fdb090600090a250565b6000815180845260005b81811015610b9b57602081850181015186830182015201610b7f565b506000602082860101526020601f19601f83011685010191505092915050565b602081526000610bce6020830184610b75565b9392505050565b8015158114610be357600080fd5b50565b600060208284031215610bf857600080fd5b8135610bce81610bd5565b80356001600160a01b0381168114610c1a57600080fd5b919050565b80356001600160e01b031981168114610c1a57600080fd5b60008060408385031215610c4a57600080fd5b610c5383610c03565b9150610c6160208401610c1f565b90509250929050565b600080600060408486031215610c7f57600080fd5b610c8884610c03565b9250602084013567ffffffffffffffff80821115610ca557600080fd5b818601915086601f830112610cb957600080fd5b813581811115610cc857600080fd5b8760208260051b8501011115610cdd57600080fd5b6020830194508093505050509250925092565b600060208284031215610d0257600080fd5b610bce82610c03565b60008060008060608587031215610d2157600080fd5b610d2a85610c03565b935060208501359250604085013567ffffffffffffffff80821115610d4e57600080fd5b818701915087601f830112610d6257600080fd5b813581811115610d7157600080fd5b886020828501011115610d8357600080fd5b95989497505060200194505050565b600060208284031215610da457600080fd5b610bce82610c1f565b600060208284031215610dbf57600080fd5b8151610bce81610bd5565b600181811c90821680610dde57607f821691505b602082108103610dfe57634e487b7160e01b600052602260045260246000fd5b50919050565b60208082526019908201527f4e6f7420616e20617574686f7269736564207365727669636500000000000000604082015260600190565b634e487b7160e01b600052603260045260246000fd5b634e487b7160e01b600052601160045260246000fd5b600060018201610e7957610e79610e51565b5060010190565b8183823760009101908152919050565b60208152816020820152818360408301376000818301604090810191909152601f909201601f19160101919050565b600081610ece57610ece610e51565b50600019019056fea2646970667358221220dbb8719401eff7d8b0c3cdb903b123be09a7d43e57a6834d6a8a8beeacb544cb64736f6c63430008110033",
    "linkReferences": {}
  },
  "methodIdentifiers": {
    "addService(address)": "5372a9ce",
    "authorised(address)": "d6eb1bbf",
    "callEnabled(bytes4)": "a31fb7a2",
    "enableStaticCall(address,bytes4)": "13da30b2",
    "init(address,address[])": "3c5a3cea",
    "initialised()": "07003bb4",
    "invoke(address,uint256,bytes)": "8f6f0332",
    "lock(bool)": "0dd0a042",
    "locked()": "cf309012",
    "name()": "06fdde03",
    "owner()": "8da5cb5b",
    "revokeService(address)": "dbada580",
    "services()": "7b2b30e3",
    "staticCallExecutor()": "6e474be7",
    "transferOwner(address)": "4fb2e45d"
  },
  "id": 19
}