{
  "abi": [
    {
      "inputs": [],
      "stateMutability": "nonpayable",
      "type": "constructor"
    },
    {
      "anonymous": false,
      "inputs": [
        {
          "indexed": false,
          "internalType": "bytes32",
          "name": "name",
          "type": "bytes32"
        }
      ],
      "name": "ServiceCreated",
      "type": "event"
    },
    {
      "inputs": [
        {
          "internalType": "address",
          "name": "_wallet",
          "type": "address"
        },
        {
          "internalType": "address[]",
          "name": "_guardians",
          "type": "address[]"
        },
        {
          "internalType": "uint256[]",
          "name": "_weights",
          "type": "uint256[]"
        },
        {
          "internalType": "uint256",
          "name": "_threshold",
          "type": "uint256"
        }
      ],
      "name": "addGuardians",
      "outputs": [],
      "stateMutability": "nonpayable",
      "type": "function"
    },
    {
      "inputs": [
        {
          "internalType": "address",
          "name": "_wallet",
          "type": "address"
        },
        {
          "internalType": "address",
          "name": "_guardian",
          "type": "address"
        },
        {
          "internalType": "uint256",
          "name": "_newWeight",
          "type": "uint256"
        }
      ],
      "name": "adjustGuardianWeight",
      "outputs": [],
      "stateMutability": "nonpayable",
      "type": "function"
    },
    {
      "inputs": [
        {
          "internalType": "address",
          "name": "_wallet",
          "type": "address"
        }
      ],
      "name": "getGuardianThreshold",
      "outputs": [
        {
          "internalType": "uint256",
          "name": "",
          "type": "uint256"
        }
      ],
      "stateMutability": "view",
      "type": "function"
    },
    {
      "inputs": [
        {
          "internalType": "bytes32",
          "name": "dataHash",
          "type": "bytes32"
        },
        {
          "internalType": "bytes",
          "name": "signatures",
          "type": "bytes"
        },
        {
          "internalType": "uint256",
          "name": "requiredSignatures",
          "type": "uint256"
        }
      ],
      "name": "getSigners",
      "outputs": [
        {
          "internalType": "address[]",
          "name": "",
          "type": "address[]"
        }
      ],
      "stateMutability": "pure",
      "type": "function"
    },
    {
      "inputs": [
        {
          "internalType": "address",
          "name": "_wallet",
          "type": "address"
        },
        {
          "internalType": "address",
          "name": "_newOwner",
          "type": "address"
        },
        {
          "internalType": "bytes",
          "name": "_signatures",
          "type": "bytes"
        },
        {
          "internalType": "bytes32",
          "name": "_dataHash",
          "type": "bytes32"
        }
      ],
      "name": "guardianRecover",
      "outputs": [],
      "stateMutability": "nonpayable",
      "type": "function"
    },
    {
      "inputs": [
        {
          "internalType": "address",
          "name": "_wallet",
          "type": "address"
        },
        {
          "internalType": "address",
          "name": "_addr",
          "type": "address"
        }
      ],
      "name": "isGuardian",
      "outputs": [
        {
          "internalType": "bool",
          "name": "",
          "type": "bool"
        }
      ],
      "stateMutability": "view",
      "type": "function"
    },
    {
      "inputs": [
        {
          "internalType": "address",
          "name": "_wallet",
          "type": "address"
        }
      ],
      "name": "lockWallet",
      "outputs": [],
      "stateMutability": "nonpayable",
      "type": "function"
    },
    {
      "inputs": [
        {
          "internalType": "address",
          "name": "_wallet",
          "type": "address"
        },
        {
          "internalType": "address",
          "name": "_guardian",
          "type": "address"
        }
      ],
      "name": "removeGuardian",
      "outputs": [],
      "stateMutability": "nonpayable",
      "type": "function"
    },
    {
      "inputs": [
        {
          "internalType": "address",
          "name": "_wallet",
          "type": "address"
        },
        {
          "internalType": "uint256",
          "name": "_threshold",
          "type": "uint256"
        }
      ],
      "name": "setGuardianThreshold",
      "outputs": [],
      "stateMutability": "nonpayable",
      "type": "function"
    },
    {
      "inputs": [
        {
          "internalType": "address",
          "name": "_wallet",
          "type": "address"
        }
      ],
      "name": "totalGuardians",
      "outputs": [
        {
          "internalType": "uint256",
          "name": "",
          "type": "uint256"
        }
      ],
      "stateMutability": "view",
      "type": "function"
    },
    {
      "inputs": [
        {
          "internalType": "address",
          "name": "_wallet",
          "type": "address"
        }
      ],
      "name": "unlock",
      "outputs": [],
      "stateMutability": "nonpayable",
      "type": "function"
    }
  ],
  "bytecode": {
    "object": "0x608060405234801561001057600080fd5b507f536869656c6453616665747953657276696365000000000000000000000000007f76a98a2b6f3323c578204e1aadf34f8bbd93a08e7222d8987118c5aa21ff5cc38160405161006391815260200190565b60405180910390a1506114f88061007b6000396000f3fe608060405234801561001057600080fd5b50600436106100a95760003560e01c80637f9fb6f3116100715780637f9fb6f3146101485780639b27a90e1461015b578063ccefdcea1461016e578063cd808d941461019a578063ce23b995146101ad578063d4ee9734146101c057600080fd5b806305b89277146100ae5780631338dd0d146100ed57806314b162a2146101025780632089e90f146101225780632f6c493c14610135575b600080fd5b6100da6100bc36600461103e565b6001600160a01b031660009081526020819052604090206002015490565b6040519081526020015b60405180910390f35b6101006100fb366004611062565b6101e3565b005b610115610110366004611131565b61031d565b6040516100e49190611181565b61010061013036600461121a565b61046b565b61010061014336600461103e565b61067c565b6101006101563660046112a5565b610762565b6101006101693660046112e6565b61085b565b6100da61017c36600461103e565b6001600160a01b031660009081526020819052604090206001015490565b6101006101a836600461103e565b610923565b6101006101bb36600461131f565b6109cb565b6101d36101ce3660046112e6565b610cdd565b60405190151581526020016100e4565b81303314806101f757506101f78133610d0d565b61021c5760405162461bcd60e51b815260040161021390611389565b60405180910390fd5b6000821161026c5760405162461bcd60e51b815260206004820181905260248201527f5468726573686f6c64206d7573742062652067726561746572207468616e20306044820152606401610213565b6001600160a01b0383166000908152602081905260409020600101548211156102fd5760405162461bcd60e51b815260206004820152603760248201527f5468726573686f6c64206d757374206265206c657373207468616e206f72206560448201527f7175616c20746f20746f74616c20677561726469616e730000000000000000006064820152608401610213565b506001600160a01b03909116600090815260208190526040902060020155565b6060816041845161032e91906113ec565b146103775760405162461bcd60e51b8152602060048201526019602482015278092dcecc2d8d2c840e6d2cedcc2e8eae4cae640d8cadccee8d603b1b6044820152606401610213565b600082116103d35760405162461bcd60e51b8152602060048201526024808201527f5468657265206d757374206265206d6f7265207468616e2030207369676e61746044820152637572657360e01b6064820152608401610213565b606060005b83811015610462576000806000610408888560419081029190910160208101516040820151919092015160ff1692565b92509250925061041a89848484610d8c565b85858151811061042c5761042c611400565b60200260200101906001600160a01b031690816001600160a01b031681525050505050808061045a90611416565b9150506103d8565b50949350505050565b853033148061047f575061047f8133610d0d565b61049b5760405162461bcd60e51b815260040161021390611389565b600082116104eb5760405162461bcd60e51b815260206004820181905260248201527f5468726573686f6c64206d7573742062652067726561746572207468616e20306044820152606401610213565b60005b8581101561065457600087878381811061050a5761050a611400565b905060200201602081019061051f919061103e565b905061052b8982610cdd565b156105715760405162461bcd60e51b815260206004820152601660248201527511dd585c991a585b88185b1c9958591e48185919195960521b6044820152606401610213565b600086868481811061058557610585611400565b90506020020135116105d95760405162461bcd60e51b815260206004820152601d60248201527f576569676874206d7573742062652067726561746572207468616e20300000006044820152606401610213565b8585838181106105eb576105eb611400565b6001600160a01b03808d1660008181526020818152604080832094891683528482528220948102969096013560018086019190915542909455908152938490520180549290915061063b83611416565b919050555050808061064c90611416565b9150506104ee565b50506001600160a01b0390951660009081526020819052604090206002019490945550505050565b803033148061069057506106908133610d0d565b6106ac5760405162461bcd60e51b815260040161021390611389565b816106b681610db4565b6107025760405162461bcd60e51b815260206004820152601960248201527f424d3a2077616c6c6574206d757374206265206c6f636b6564000000000000006044820152606401610213565b6040516306e8502160e11b8152600060048201526001600160a01b03841690630dd0a042906024015b600060405180830381600087803b15801561074557600080fd5b505af1158015610759573d6000803e3d6000fd5b50505050505050565b823033148061077657506107768133610d0d565b6107925760405162461bcd60e51b815260040161021390611389565b61079c8484610cdd565b6107dd5760405162461bcd60e51b815260206004820152601260248201527111dd585c991a585b881b9bdd08185919195960721b6044820152606401610213565b6000821161082d5760405162461bcd60e51b815260206004820152601d60248201527f576569676874206d7573742062652067726561746572207468616e20300000006044820152606401610213565b506001600160a01b039283166000908152602081815260408083209490951682529290925291902060010155565b813033148061086f575061086f8133610d0d565b61088b5760405162461bcd60e51b815260040161021390611389565b6108958383610cdd565b6108d65760405162461bcd60e51b815260206004820152601260248201527111dd585c991a585b881b9bdd08185919195960721b6044820152606401610213565b6001600160a01b0380841660008181526020818152604080832094871683528482528220828155600190810183905592825281905291018054916109198361142f565b9190505550505050565b803033148061093757506109378133610d0d565b6109535760405162461bcd60e51b815260040161021390611389565b8161095d81610db4565b1561099e5760405162461bcd60e51b815260206004820152601160248201527010934e881dd85b1b195d081b1bd8dad959607a1b6044820152606401610213565b6040516306e8502160e11b8152600160048201526001600160a01b03841690630dd0a0429060240161072b565b836109d68133610cdd565b610a175760405162461bcd60e51b815260206004820152601260248201527126bab9ba10313290309033bab0b93234b0b760711b6044820152606401610213565b6001600160a01b03851660009081526020819052604081206001015411610a6f5760405162461bcd60e51b815260206004820152600c60248201526b4e6f20677561726469616e7360a01b6044820152606401610213565b600060418451610a7f91906113ec565b905060418451610a8f9190611446565b15610ad85760405162461bcd60e51b8152602060048201526019602482015278092dcecc2d8d2c840e6d2cedcc2e8eae4cae640d8cadccee8d603b1b6044820152606401610213565b6000610ae584868461031d565b90506000805b8251811015610c1557610b1789848381518110610b0a57610b0a611400565b6020026020010151610cdd565b610b895760405162461bcd60e51b815260206004820152603f60248201527f5369676e6174757265732077657265206e6f742066726f6d206775617264696160448201527f6e73206f72207765726520666f726d617474656420696d70726f7065726c79006064820152608401610213565b6001600160a01b038916600090815260208190526040812084518290869085908110610bb757610bb7611400565b6020908102919091018101516001600160a01b03168252818101929092526040908101600020815180830190925280548252600101549181018290529150610bff908461145a565b9250508080610c0d90611416565b915050610aeb565b506001600160a01b0388166000908152602081905260409020600201548110610c9857604051634fb2e45d60e01b81526001600160a01b038881166004830152891690634fb2e45d90602401600060405180830381600087803b158015610c7b57600080fd5b505af1158015610c8f573d6000803e3d6000fd5b50505050610cd3565b60405162461bcd60e51b815260206004820152601060248201526f4e6f7420656e6f75676820766f74657360801b6044820152606401610213565b5050505050505050565b6001600160a01b038083166000908152602081815260408083209385168352929052206001015415155b92915050565b6000816001600160a01b0316836001600160a01b0316638da5cb5b6040518163ffffffff1660e01b8152600401602060405180830381865afa158015610d57573d6000803e3d6000fd5b505050506040513d601f19601f82011682018060405250810190610d7b919061146d565b6001600160a01b0316149392505050565b6000806000610d9d87878787610e18565b91509150610daa81610edc565b5095945050505050565b6000816001600160a01b031663cf3090126040518163ffffffff1660e01b8152600401602060405180830381865afa158015610df4573d6000803e3d6000fd5b505050506040513d601f19601f82011682018060405250810190610d07919061148a565b6000807f7fffffffffffffffffffffffffffffff5d576e7357a4501ddfe92f46681b20a0831115610e4f5750600090506003610ed3565b6040805160008082526020820180845289905260ff881692820192909252606081018690526080810185905260019060a0016020604051602081039080840390855afa158015610ea3573d6000803e3d6000fd5b5050604051601f1901519150506001600160a01b038116610ecc57600060019250925050610ed3565b9150600090505b94509492505050565b6000816004811115610ef057610ef06114ac565b03610ef85750565b6001816004811115610f0c57610f0c6114ac565b03610f595760405162461bcd60e51b815260206004820152601860248201527f45434453413a20696e76616c6964207369676e617475726500000000000000006044820152606401610213565b6002816004811115610f6d57610f6d6114ac565b03610fba5760405162461bcd60e51b815260206004820152601f60248201527f45434453413a20696e76616c6964207369676e6174757265206c656e677468006044820152606401610213565b6003816004811115610fce57610fce6114ac565b036110265760405162461bcd60e51b815260206004820152602260248201527f45434453413a20696e76616c6964207369676e6174757265202773272076616c604482015261756560f01b6064820152608401610213565b50565b6001600160a01b038116811461102657600080fd5b60006020828403121561105057600080fd5b813561105b81611029565b9392505050565b6000806040838503121561107557600080fd5b823561108081611029565b946020939093013593505050565b634e487b7160e01b600052604160045260246000fd5b600082601f8301126110b557600080fd5b813567ffffffffffffffff808211156110d0576110d061108e565b604051601f8301601f19908116603f011681019082821181831017156110f8576110f861108e565b8160405283815286602085880101111561111157600080fd5b836020870160208301376000602085830101528094505050505092915050565b60008060006060848603121561114657600080fd5b83359250602084013567ffffffffffffffff81111561116457600080fd5b611170868287016110a4565b925050604084013590509250925092565b6020808252825182820181905260009190848201906040850190845b818110156111c25783516001600160a01b03168352928401929184019160010161119d565b50909695505050505050565b60008083601f8401126111e057600080fd5b50813567ffffffffffffffff8111156111f857600080fd5b6020830191508360208260051b850101111561121357600080fd5b9250929050565b6000806000806000806080878903121561123357600080fd5b863561123e81611029565b9550602087013567ffffffffffffffff8082111561125b57600080fd5b6112678a838b016111ce565b9097509550604089013591508082111561128057600080fd5b5061128d89828a016111ce565b979a9699509497949695606090950135949350505050565b6000806000606084860312156112ba57600080fd5b83356112c581611029565b925060208401356112d581611029565b929592945050506040919091013590565b600080604083850312156112f957600080fd5b823561130481611029565b9150602083013561131481611029565b809150509250929050565b6000806000806080858703121561133557600080fd5b843561134081611029565b9350602085013561135081611029565b9250604085013567ffffffffffffffff81111561136c57600080fd5b611378878288016110a4565b949793965093946060013593505050565b60208082526019908201527f4d7573742062652077616c6c6574206f776e65722f73656c6600000000000000604082015260600190565b634e487b7160e01b600052601260045260246000fd5b634e487b7160e01b600052601160045260246000fd5b6000826113fb576113fb6113c0565b500490565b634e487b7160e01b600052603260045260246000fd5b600060018201611428576114286113d6565b5060010190565b60008161143e5761143e6113d6565b506000190190565b600082611455576114556113c0565b500690565b80820180821115610d0757610d076113d6565b60006020828403121561147f57600080fd5b815161105b81611029565b60006020828403121561149c57600080fd5b8151801515811461105b57600080fd5b634e487b7160e01b600052602160045260246000fdfea26469706673582212208b2b5ef3156f92eda417cff87506a79855dcde8d30b4fe80d4cbd7b89e11d91964736f6c63430008110033",
    "linkReferences": {}
  },
  "methodIdentifiers": {
    "addGuardians(address,address[],uint256[],uint256)": "2089e90f",
    "adjustGuardianWeight(address,address,uint256)": "7f9fb6f3",
    "getGuardianThreshold(address)": "05b89277",
    "getSigners(bytes32,bytes,uint256)": "14b162a2",
    "guardianRecover(address,address,bytes,bytes32)": "ce23b995",
    "isGuardian(address,address)": "d4ee9734",
    "lockWallet(address)": "cd808d94",
    "removeGuardian(address,address)": "9b27a90e",
    "setGuardianThreshold(address,uint256)": "1338dd0d",
    "totalGuardians(address)": "ccefdcea",
    "unlock(address)": "2f6c493c"
  },
  "id": 22
}