{
  "abi": [
    {
      "inputs": [
        {
          "internalType": "address[]",
          "name": "_services",
          "type": "address[]"
        }
      ],
      "stateMutability": "nonpayable",
      "type": "constructor"
    },
    {
      "anonymous": false,
      "inputs": [
        {
          "indexed": true,
          "internalType": "address",
          "name": "_service",
          "type": "address"
        },
        {
          "indexed": true,
          "internalType": "address",
          "name": "target",
          "type": "address"
        },
        {
          "indexed": true,
          "internalType": "uint256",
          "name": "value",
          "type": "uint256"
        },
        {
          "indexed": false,
          "internalType": "bytes",
          "name": "data",
          "type": "bytes"
        }
      ],
      "name": "Invoked",
      "type": "event"
    },
    {
      "anonymous": false,
      "inputs": [
        {
          "indexed": true,
          "internalType": "address",
          "name": "previousOwner",
          "type": "address"
        },
        {
          "indexed": true,
          "internalType": "address",
          "name": "newOwner",
          "type": "address"
        }
      ],
      "name": "OwnershipTransferred",
      "type": "event"
    },
    {
      "anonymous": false,
      "inputs": [
        {
          "indexed": true,
          "internalType": "address",
          "name": "service",
          "type": "address"
        }
      ],
      "name": "ServiceAuthorised",
      "type": "event"
    },
    {
      "anonymous": false,
      "inputs": [
        {
          "indexed": true,
          "internalType": "address",
          "name": "service",
          "type": "address"
        }
      ],
      "name": "ServiceRevoked",
      "type": "event"
    },
    {
      "stateMutability": "payable",
      "type": "fallback"
    },
    {
      "inputs": [
        {
          "internalType": "address",
          "name": "_service",
          "type": "address"
        }
      ],
      "name": "addService",
      "outputs": [],
      "stateMutability": "nonpayable",
      "type": "function"
    },
    {
      "inputs": [
        {
          "internalType": "address",
          "name": "",
          "type": "address"
        }
      ],
      "name": "authorised",
      "outputs": [
        {
          "internalType": "bool",
          "name": "",
          "type": "bool"
        }
      ],
      "stateMutability": "view",
      "type": "function"
    },
    {
      "inputs": [
        {
          "internalType": "bytes4",
          "name": "_signature",
          "type": "bytes4"
        }
      ],
      "name": "callEnabled",
      "outputs": [
        {
          "internalType": "address",
          "name": "",
          "type": "address"
        }
      ],
      "stateMutability": "view",
      "type": "function"
    },
    {
      "inputs": [
        {
          "internalType": "address",
          "name": "_service",
          "type": "address"
        },
        {
          "internalType": "bytes4",
          "name": "",
          "type": "bytes4"
        }
      ],
      "name": "enableStaticCall",
      "outputs": [],
      "stateMutability": "nonpayable",
      "type": "function"
    },
    {
      "inputs": [
        {
          "internalType": "address",
          "name": "_owner",
          "type": "address"
        },
        {
          "internalType": "address[]",
          "name": "_services",
          "type": "address[]"
        }
      ],
      "name": "init",
      "outputs": [],
      "stateMutability": "nonpayable",
      "type": "function"
    },
    {
      "inputs": [],
      "name": "initialised",
      "outputs": [
        {
          "internalType": "bool",
          "name": "",
          "type": "bool"
        }
      ],
      "stateMutability": "view",
      "type": "function"
    },
    {
      "inputs": [
        {
          "internalType": "address",
          "name": "_target",
          "type": "address"
        },
        {
          "internalType": "uint256",
          "name": "_value",
          "type": "uint256"
        },
        {
          "internalType": "bytes",
          "name": "_data",
          "type": "bytes"
        }
      ],
      "name": "invoke",
      "outputs": [
        {
          "internalType": "bytes",
          "name": "_result",
          "type": "bytes"
        }
      ],
      "stateMutability": "nonpayable",
      "type": "function"
    },
    {
      "inputs": [
        {
          "internalType": "bool",
          "name": "_lock",
          "type": "bool"
        }
      ],
      "name": "lock",
      "outputs": [],
      "stateMutability": "nonpayable",
      "type": "function"
    },
    {
      "inputs": [],
      "name": "locked",
      "outputs": [
        {
          "internalType": "bool",
          "name": "",
          "type": "bool"
        }
      ],
      "stateMutability": "view",
      "type": "function"
    },
    {
      "inputs": [],
      "name": "owner",
      "outputs": [
        {
          "internalType": "address",
          "name": "",
          "type": "address"
        }
      ],
      "stateMutability": "view",
      "type": "function"
    },
    {
      "inputs": [
        {
          "internalType": "address",
          "name": "_service",
          "type": "address"
        }
      ],
      "name": "revokeService",
      "outputs": [],
      "stateMutability": "nonpayable",
      "type": "function"
    },
    {
      "inputs": [],
      "name": "services",
      "outputs": [
        {
          "internalType": "uint256",
          "name": "",
          "type": "uint256"
        }
      ],
      "stateMutability": "view",
      "type": "function"
    },
    {
      "inputs": [],
      "name": "staticCallExecutor",
      "outputs": [
        {
          "internalType": "address",
          "name": "",
          "type": "address"
        }
      ],
      "stateMutability": "view",
      "type": "function"
    },
    {
      "inputs": [
        {
          "internalType": "address",
          "name": "_newOwner",
          "type": "address"
        }
      ],
      "name": "transferOwner",
      "outputs": [],
      "stateMutability": "nonpayable",
      "type": "function"
    },
    {
      "stateMutability": "payable",
      "type": "receive"
    }
  ],
  "bytecode": {
    "object": "0x60806040523480156200001157600080fd5b50604051620010e5380380620010e583398101604081905262000034916200019e565b60028054825160019081556001600160a81b0319909116336101000260ff19161717905560005b8151811015620001255760016000808484815181106200007f576200007f62000270565b60200260200101516001600160a01b03166001600160a01b0316815260200190815260200160002060006101000a81548160ff021916908315150217905550818181518110620000d357620000d362000270565b60200260200101516001600160a01b03167f24f732a5a9a2087f84e34d6370d03476ac85bbecaf33f9559b7c50d1a6b1bbc560405160405180910390a2806200011c8162000286565b9150506200005b565b506002546040516101009091046001600160a01b0316906000907f8be0079c531659141344cd1fd0a4f28419497f9722a3daafe3b4186f6b6457e0908290a350620002ae565b634e487b7160e01b600052604160045260246000fd5b80516001600160a01b03811681146200019957600080fd5b919050565b60006020808385031215620001b257600080fd5b82516001600160401b0380821115620001ca57600080fd5b818501915085601f830112620001df57600080fd5b815181811115620001f457620001f46200016b565b8060051b604051601f19603f830116810181811085821117156200021c576200021c6200016b565b6040529182528482019250838101850191888311156200023b57600080fd5b938501935b828510156200026457620002548562000181565b8452938501939285019262000240565b98975050505050505050565b634e487b7160e01b600052603260045260246000fd5b600060018201620002a757634e487b7160e01b600052601160045260246000fd5b5060010190565b610e2780620002be6000396000f3fe6080604052600436106100e15760003560e01c80637b2b30e31161007f578063a31fb7a211610059578063a31fb7a214610317578063cf30901214610337578063d6eb1bbf14610358578063dbada58014610388576100e8565b80637b2b30e3146102a15780638da5cb5b146102c55780638f6f0332146102ea576100e8565b80633c5a3cea116100bb5780633c5a3cea146102095780634fb2e45d146102295780635372a9ce146102495780636e474be714610269576100e8565b806307003bb41461019a5780630dd0a042146101c957806313da30b2146101e9576100e8565b366100e857005b60006100ff6000356001600160e01b0319166103a8565b90506001600160a01b03811615610198576001600160a01b03811660009081526020819052604090205460ff166101745760405162461bcd60e51b8152602060048201526014602482015273556e617574686f72697a6564207365727669636560601b60448201526064015b60405180910390fd5b3660008037600080366000845afa3d6000803e808015610193573d6000f35b3d6000fd5b005b3480156101a657600080fd5b506002546101b49060ff1681565b60405190151581526020015b60405180910390f35b3480156101d557600080fd5b506101986101e4366004610ae6565b610447565b3480156101f557600080fd5b50610198610204366004610b3e565b610494565b34801561021557600080fd5b50610198610224366004610b71565b610577565b34801561023557600080fd5b50610198610244366004610bf7565b6106c9565b34801561025557600080fd5b50610198610264366004610bf7565b61079c565b34801561027557600080fd5b50600354610289906001600160a01b031681565b6040516001600160a01b0390911681526020016101c0565b3480156102ad57600080fd5b506102b760015481565b6040519081526020016101c0565b3480156102d157600080fd5b506002546102899061010090046001600160a01b031681565b3480156102f657600080fd5b5061030a610305366004610c12565b61089a565b6040516101c09190610c99565b34801561032357600080fd5b50610289610332366004610ce7565b6103a8565b34801561034357600080fd5b506003546101b490600160a01b900460ff1681565b34801561036457600080fd5b506101b4610373366004610bf7565b60006020819052908152604090205460ff1681565b34801561039457600080fd5b506101986103a3366004610bf7565b610996565b6003546000906001600160a01b03168015801590610433575060405163096d424d60e21b81526001600160e01b0319841660048201526001600160a01b038216906325b5093490602401602060405180830381865afa15801561040f573d6000803e3d6000fd5b505050506040513d601f19601f820116820180604052508101906104339190610d02565b1561043e5792915050565b50600092915050565b3360009081526020819052604090205460ff166104765760405162461bcd60e51b815260040161016b90610d1f565b60038054911515600160a01b0260ff60a01b19909216919091179055565b3360009081526020819052604090205460ff166104c35760405162461bcd60e51b815260040161016b90610d1f565b6003546001600160a01b03838116911614610554576001600160a01b03821660009081526020819052604090205460ff166105385760405162461bcd60e51b81526020600482015260156024820152742ab730baba3437b934bd32b21032bc32b1baba37b960591b604482015260640161016b565b600380546001600160a01b0319166001600160a01b0384161790555b50600380546001600160a01b0319166001600160a01b0392909216919091179055565b60025460ff1615801561058a5750600154155b6105d65760405162461bcd60e51b815260206004820152601a60248201527f57616c6c657420616c726561647920696e697469616c69736564000000000000604482015260640161016b565b6002805460ff1916600190811790915581905560005b8181101561068d5730635372a9ce84848481811061060c5761060c610d56565b90506020020160208101906106219190610bf7565b6040516001600160e01b031960e084901b1681526001600160a01b039091166004820152602401600060405180830381600087803b15801561066257600080fd5b505af1158015610676573d6000803e3d6000fd5b50505050808061068590610d82565b9150506105ec565b506040516001600160a01b038416906000907f8be0079c531659141344cd1fd0a4f28419497f9722a3daafe3b4186f6b6457e0908290a3505050565b3360009081526020819052604090205460ff166106f85760405162461bcd60e51b815260040161016b90610d1f565b6001600160a01b0381166107405760405162461bcd60e51b815260206004820152600f60248201526e496e76616c6964206164647265737360881b604482015260640161016b565b60028054610100600160a81b0319166101006001600160a01b03848116828102939093179384905560405192939190910416907f8be0079c531659141344cd1fd0a4f28419497f9722a3daafe3b4186f6b6457e090600090a350565b3360009081526020819052604090205460ff166107cb5760405162461bcd60e51b815260040161016b90610d1f565b6001600160a01b03811660009081526020819052604090205460ff161561082c5760405162461bcd60e51b815260206004820152601560248201527414d95c9d9a58d948185b1c9958591e481859191959605a1b604482015260640161016b565b6001600160a01b0381166000908152602081905260408120805460ff1916600190811790915580549161085e83610d82565b90915550506040516001600160a01b038216907f24f732a5a9a2087f84e34d6370d03476ac85bbecaf33f9559b7c50d1a6b1bbc590600090a250565b3360009081526020819052604090205460609060ff166108cc5760405162461bcd60e51b815260040161016b90610d1f565b6000856001600160a01b03168585856040516108e9929190610d9b565b60006040518083038185875af1925050503d8060008114610926576040519150601f19603f3d011682016040523d82523d6000602084013e61092b565b606091505b50925090508061093f573d6000803e3d6000fd5b84866001600160a01b0316336001600160a01b03167f7d2476ab50663f025cff0be85655bcf355f62768615c0c478f3cd5293f8073658787604051610985929190610dab565b60405180910390a450949350505050565b3360009081526020819052604090205460ff166109c55760405162461bcd60e51b815260040161016b90610d1f565b6001600160a01b03811660009081526020819052604090205460ff16610a215760405162461bcd60e51b815260206004820152601160248201527014d95c9d9a58d9481b9bdd081859191959607a1b604482015260640161016b565b600060015411610a6b5760405162461bcd60e51b81526020600482015260156024820152744e6f20736572766963657320746f207265766f6b6560581b604482015260640161016b565b6001600160a01b0381166000908152602081905260408120805460ff191690556001805491610a9983610dda565b90915550506040516001600160a01b038216907f7b6f146cbceaa98ba4b1c6416d823b72bb87cd8ca9009ff4bda62998e7e9fdb090600090a250565b8015158114610ae357600080fd5b50565b600060208284031215610af857600080fd5b8135610b0381610ad5565b9392505050565b80356001600160a01b0381168114610b2157600080fd5b919050565b80356001600160e01b031981168114610b2157600080fd5b60008060408385031215610b5157600080fd5b610b5a83610b0a565b9150610b6860208401610b26565b90509250929050565b600080600060408486031215610b8657600080fd5b610b8f84610b0a565b9250602084013567ffffffffffffffff80821115610bac57600080fd5b818601915086601f830112610bc057600080fd5b813581811115610bcf57600080fd5b8760208260051b8501011115610be457600080fd5b6020830194508093505050509250925092565b600060208284031215610c0957600080fd5b610b0382610b0a565b60008060008060608587031215610c2857600080fd5b610c3185610b0a565b935060208501359250604085013567ffffffffffffffff80821115610c5557600080fd5b818701915087601f830112610c6957600080fd5b813581811115610c7857600080fd5b886020828501011115610c8a57600080fd5b95989497505060200194505050565b600060208083528351808285015260005b81811015610cc657858101830151858201604001528201610caa565b506000604082860101526040601f19601f8301168501019250505092915050565b600060208284031215610cf957600080fd5b610b0382610b26565b600060208284031215610d1457600080fd5b8151610b0381610ad5565b60208082526019908201527f4e6f7420616e20617574686f7269736564207365727669636500000000000000604082015260600190565b634e487b7160e01b600052603260045260246000fd5b634e487b7160e01b600052601160045260246000fd5b600060018201610d9457610d94610d6c565b5060010190565b8183823760009101908152919050565b60208152816020820152818360408301376000818301604090810191909152601f909201601f19160101919050565b600081610de957610de9610d6c565b50600019019056fea26469706673582212207e345bb8655f1485d5a51566e8e7400bb313293c19417844d4369dfeb9add9ec64736f6c63430008110033",
    "linkReferences": {}
  },
  "methodIdentifiers": {
    "addService(address)": "5372a9ce",
    "authorised(address)": "d6eb1bbf",
    "callEnabled(bytes4)": "a31fb7a2",
    "enableStaticCall(address,bytes4)": "13da30b2",
    "init(address,address[])": "3c5a3cea",
    "initialised()": "07003bb4",
    "invoke(address,uint256,bytes)": "8f6f0332",
    "lock(bool)": "0dd0a042",
    "locked()": "cf309012",
    "owner()": "8da5cb5b",
    "revokeService(address)": "dbada580",
    "services()": "7b2b30e3",
    "staticCallExecutor()": "6e474be7",
    "transferOwner(address)": "4fb2e45d"
  },
  "id": 3
}