{
  "abi": [
    {
      "inputs": [],
      "stateMutability": "nonpayable",
      "type": "constructor"
    },
    {
      "anonymous": false,
      "inputs": [
        {
          "indexed": false,
          "internalType": "bytes32",
          "name": "name",
          "type": "bytes32"
        }
      ],
      "name": "ServiceCreated",
      "type": "event"
    },
    {
      "inputs": [
        {
          "internalType": "address",
          "name": "_wallet",
          "type": "address"
        },
        {
          "internalType": "address",
          "name": "_guardian",
          "type": "address"
        },
        {
          "internalType": "uint256",
          "name": "_weight",
          "type": "uint256"
        },
        {
          "internalType": "uint256",
          "name": "_newThreshold",
          "type": "uint256"
        }
      ],
      "name": "addGuardian",
      "outputs": [],
      "stateMutability": "nonpayable",
      "type": "function"
    },
    {
      "inputs": [
        {
          "internalType": "address",
          "name": "_wallet",
          "type": "address"
        },
        {
          "internalType": "address",
          "name": "_guardian",
          "type": "address"
        },
        {
          "internalType": "uint256",
          "name": "_newWeight",
          "type": "uint256"
        }
      ],
      "name": "adjustGuardianWeight",
      "outputs": [],
      "stateMutability": "nonpayable",
      "type": "function"
    },
    {
      "inputs": [
        {
          "internalType": "address",
          "name": "_wallet",
          "type": "address"
        }
      ],
      "name": "getGuardianThreshold",
      "outputs": [
        {
          "internalType": "uint256",
          "name": "",
          "type": "uint256"
        }
      ],
      "stateMutability": "view",
      "type": "function"
    },
    {
      "inputs": [
        {
          "internalType": "bytes32",
          "name": "dataHash",
          "type": "bytes32"
        },
        {
          "internalType": "bytes",
          "name": "signatures",
          "type": "bytes"
        },
        {
          "internalType": "uint256",
          "name": "requiredSignatures",
          "type": "uint256"
        }
      ],
      "name": "getSigners",
      "outputs": [
        {
          "internalType": "address[]",
          "name": "",
          "type": "address[]"
        }
      ],
      "stateMutability": "pure",
      "type": "function"
    },
    {
      "inputs": [
        {
          "internalType": "address",
          "name": "_wallet",
          "type": "address"
        },
        {
          "internalType": "address",
          "name": "_newOwner",
          "type": "address"
        },
        {
          "internalType": "bytes",
          "name": "_signatures",
          "type": "bytes"
        },
        {
          "internalType": "bytes32",
          "name": "_dataHash",
          "type": "bytes32"
        }
      ],
      "name": "guardianRecover",
      "outputs": [],
      "stateMutability": "nonpayable",
      "type": "function"
    },
    {
      "inputs": [
        {
          "internalType": "address",
          "name": "_wallet",
          "type": "address"
        },
        {
          "internalType": "address",
          "name": "_addr",
          "type": "address"
        }
      ],
      "name": "isGuardian",
      "outputs": [
        {
          "internalType": "bool",
          "name": "",
          "type": "bool"
        }
      ],
      "stateMutability": "view",
      "type": "function"
    },
    {
      "inputs": [
        {
          "internalType": "address",
          "name": "_wallet",
          "type": "address"
        }
      ],
      "name": "lockWallet",
      "outputs": [],
      "stateMutability": "nonpayable",
      "type": "function"
    },
    {
      "inputs": [
        {
          "internalType": "address",
          "name": "_wallet",
          "type": "address"
        },
        {
          "internalType": "address",
          "name": "_guardian",
          "type": "address"
        }
      ],
      "name": "removeGuardian",
      "outputs": [],
      "stateMutability": "nonpayable",
      "type": "function"
    },
    {
      "inputs": [
        {
          "internalType": "address",
          "name": "_wallet",
          "type": "address"
        },
        {
          "internalType": "uint256",
          "name": "_threshold",
          "type": "uint256"
        }
      ],
      "name": "setGuardianThreshold",
      "outputs": [],
      "stateMutability": "nonpayable",
      "type": "function"
    },
    {
      "inputs": [
        {
          "internalType": "address",
          "name": "_wallet",
          "type": "address"
        }
      ],
      "name": "totalGuardians",
      "outputs": [
        {
          "internalType": "uint256",
          "name": "",
          "type": "uint256"
        }
      ],
      "stateMutability": "view",
      "type": "function"
    },
    {
      "inputs": [
        {
          "internalType": "address",
          "name": "_wallet",
          "type": "address"
        }
      ],
      "name": "unlock",
      "outputs": [],
      "stateMutability": "nonpayable",
      "type": "function"
    }
  ],
  "bytecode": {
    "object": "0x608060405234801561001057600080fd5b507f536869656c6453616665747953657276696365000000000000000000000000007f76a98a2b6f3323c578204e1aadf34f8bbd93a08e7222d8987118c5aa21ff5cc38160405161006391815260200190565b60405180910390a1506113e38061007b6000396000f3fe608060405234801561001057600080fd5b50600436106100a95760003560e01c80639b27a90e116100715780639b27a90e14610148578063c0d9f7551461015b578063ccefdcea1461016e578063cd808d941461019a578063ce23b995146101ad578063d4ee9734146101c057600080fd5b806305b89277146100ae5780631338dd0d146100ed57806314b162a2146101025780632f6c493c146101225780637f9fb6f314610135575b600080fd5b6100da6100bc366004610fba565b6001600160a01b031660009081526020819052604090206002015490565b6040519081526020015b60405180910390f35b6101006100fb366004610fde565b6101e3565b005b6101156101103660046110ad565b61031d565b6040516100e491906110fd565b610100610130366004610fba565b61046b565b61010061014336600461114a565b610551565b61010061015636600461118b565b61064a565b6101006101693660046111c4565b610712565b6100da61017c366004610fba565b6001600160a01b031660009081526020819052604090206001015490565b6101006101a8366004610fba565b61089f565b6101006101bb36600461120a565b610947565b6101d36101ce36600461118b565b610c59565b60405190151581526020016100e4565b81303314806101f757506101f78133610c89565b61021c5760405162461bcd60e51b815260040161021390611274565b60405180910390fd5b6000821161026c5760405162461bcd60e51b815260206004820181905260248201527f5468726573686f6c64206d7573742062652067726561746572207468616e20306044820152606401610213565b6001600160a01b0383166000908152602081905260409020600101548211156102fd5760405162461bcd60e51b815260206004820152603760248201527f5468726573686f6c64206d757374206265206c657373207468616e206f72206560448201527f7175616c20746f20746f74616c20677561726469616e730000000000000000006064820152608401610213565b506001600160a01b03909116600090815260208190526040902060020155565b6060816041845161032e91906112d7565b146103775760405162461bcd60e51b8152602060048201526019602482015278092dcecc2d8d2c840e6d2cedcc2e8eae4cae640d8cadccee8d603b1b6044820152606401610213565b600082116103d35760405162461bcd60e51b8152602060048201526024808201527f5468657265206d757374206265206d6f7265207468616e2030207369676e61746044820152637572657360e01b6064820152608401610213565b606060005b83811015610462576000806000610408888560419081029190910160208101516040820151919092015160ff1692565b92509250925061041a89848484610d08565b85858151811061042c5761042c6112eb565b60200260200101906001600160a01b031690816001600160a01b031681525050505050808061045a90611301565b9150506103d8565b50949350505050565b803033148061047f575061047f8133610c89565b61049b5760405162461bcd60e51b815260040161021390611274565b816104a581610d30565b6104f15760405162461bcd60e51b815260206004820152601960248201527f424d3a2077616c6c6574206d757374206265206c6f636b6564000000000000006044820152606401610213565b6040516306e8502160e11b8152600060048201526001600160a01b03841690630dd0a042906024015b600060405180830381600087803b15801561053457600080fd5b505af1158015610548573d6000803e3d6000fd5b50505050505050565b823033148061056557506105658133610c89565b6105815760405162461bcd60e51b815260040161021390611274565b61058b8484610c59565b6105cc5760405162461bcd60e51b815260206004820152601260248201527111dd585c991a585b881b9bdd08185919195960721b6044820152606401610213565b6000821161061c5760405162461bcd60e51b815260206004820152601d60248201527f576569676874206d7573742062652067726561746572207468616e20300000006044820152606401610213565b506001600160a01b039283166000908152602081815260408083209490951682529290925291902060010155565b813033148061065e575061065e8133610c89565b61067a5760405162461bcd60e51b815260040161021390611274565b6106848383610c59565b6106c55760405162461bcd60e51b815260206004820152601260248201527111dd585c991a585b881b9bdd08185919195960721b6044820152606401610213565b6001600160a01b0380841660008181526020818152604080832094871683528482528220828155600190810183905592825281905291018054916107088361131a565b9190505550505050565b833033148061072657506107268133610c89565b6107425760405162461bcd60e51b815260040161021390611274565b61074c8585610c59565b156107925760405162461bcd60e51b815260206004820152601660248201527511dd585c991a585b88185b1c9958591e48185919195960521b6044820152606401610213565b600083116107e25760405162461bcd60e51b815260206004820152601d60248201527f576569676874206d7573742062652067726561746572207468616e20300000006044820152606401610213565b600082116108325760405162461bcd60e51b815260206004820181905260248201527f5468726573686f6c64206d7573742062652067726561746572207468616e20306044820152606401610213565b6001600160a01b03808616600081815260208181526040808320948916835284825282204281556001908101889055928252819052910180549161087583611301565b9091555050506001600160a01b039093166000908152602081905260409020600201929092555050565b80303314806108b357506108b38133610c89565b6108cf5760405162461bcd60e51b815260040161021390611274565b816108d981610d30565b1561091a5760405162461bcd60e51b815260206004820152601160248201527010934e881dd85b1b195d081b1bd8dad959607a1b6044820152606401610213565b6040516306e8502160e11b8152600160048201526001600160a01b03841690630dd0a0429060240161051a565b836109528133610c59565b6109935760405162461bcd60e51b815260206004820152601260248201527126bab9ba10313290309033bab0b93234b0b760711b6044820152606401610213565b6001600160a01b038516600090815260208190526040812060010154116109eb5760405162461bcd60e51b815260206004820152600c60248201526b4e6f20677561726469616e7360a01b6044820152606401610213565b6000604184516109fb91906112d7565b905060418451610a0b9190611331565b15610a545760405162461bcd60e51b8152602060048201526019602482015278092dcecc2d8d2c840e6d2cedcc2e8eae4cae640d8cadccee8d603b1b6044820152606401610213565b6000610a6184868461031d565b90506000805b8251811015610b9157610a9389848381518110610a8657610a866112eb565b6020026020010151610c59565b610b055760405162461bcd60e51b815260206004820152603f60248201527f5369676e6174757265732077657265206e6f742066726f6d206775617264696160448201527f6e73206f72207765726520666f726d617474656420696d70726f7065726c79006064820152608401610213565b6001600160a01b038916600090815260208190526040812084518290869085908110610b3357610b336112eb565b6020908102919091018101516001600160a01b03168252818101929092526040908101600020815180830190925280548252600101549181018290529150610b7b9084611345565b9250508080610b8990611301565b915050610a67565b506001600160a01b0388166000908152602081905260409020600201548110610c1457604051634fb2e45d60e01b81526001600160a01b038881166004830152891690634fb2e45d90602401600060405180830381600087803b158015610bf757600080fd5b505af1158015610c0b573d6000803e3d6000fd5b50505050610c4f565b60405162461bcd60e51b815260206004820152601060248201526f4e6f7420656e6f75676820766f74657360801b6044820152606401610213565b5050505050505050565b6001600160a01b038083166000908152602081815260408083209385168352929052206001015415155b92915050565b6000816001600160a01b0316836001600160a01b0316638da5cb5b6040518163ffffffff1660e01b8152600401602060405180830381865afa158015610cd3573d6000803e3d6000fd5b505050506040513d601f19601f82011682018060405250810190610cf79190611358565b6001600160a01b0316149392505050565b6000806000610d1987878787610d94565b91509150610d2681610e58565b5095945050505050565b6000816001600160a01b031663cf3090126040518163ffffffff1660e01b8152600401602060405180830381865afa158015610d70573d6000803e3d6000fd5b505050506040513d601f19601f82011682018060405250810190610c839190611375565b6000807f7fffffffffffffffffffffffffffffff5d576e7357a4501ddfe92f46681b20a0831115610dcb5750600090506003610e4f565b6040805160008082526020820180845289905260ff881692820192909252606081018690526080810185905260019060a0016020604051602081039080840390855afa158015610e1f573d6000803e3d6000fd5b5050604051601f1901519150506001600160a01b038116610e4857600060019250925050610e4f565b9150600090505b94509492505050565b6000816004811115610e6c57610e6c611397565b03610e745750565b6001816004811115610e8857610e88611397565b03610ed55760405162461bcd60e51b815260206004820152601860248201527f45434453413a20696e76616c6964207369676e617475726500000000000000006044820152606401610213565b6002816004811115610ee957610ee9611397565b03610f365760405162461bcd60e51b815260206004820152601f60248201527f45434453413a20696e76616c6964207369676e6174757265206c656e677468006044820152606401610213565b6003816004811115610f4a57610f4a611397565b03610fa25760405162461bcd60e51b815260206004820152602260248201527f45434453413a20696e76616c6964207369676e6174757265202773272076616c604482015261756560f01b6064820152608401610213565b50565b6001600160a01b0381168114610fa257600080fd5b600060208284031215610fcc57600080fd5b8135610fd781610fa5565b9392505050565b60008060408385031215610ff157600080fd5b8235610ffc81610fa5565b946020939093013593505050565b634e487b7160e01b600052604160045260246000fd5b600082601f83011261103157600080fd5b813567ffffffffffffffff8082111561104c5761104c61100a565b604051601f8301601f19908116603f011681019082821181831017156110745761107461100a565b8160405283815286602085880101111561108d57600080fd5b836020870160208301376000602085830101528094505050505092915050565b6000806000606084860312156110c257600080fd5b83359250602084013567ffffffffffffffff8111156110e057600080fd5b6110ec86828701611020565b925050604084013590509250925092565b6020808252825182820181905260009190848201906040850190845b8181101561113e5783516001600160a01b031683529284019291840191600101611119565b50909695505050505050565b60008060006060848603121561115f57600080fd5b833561116a81610fa5565b9250602084013561117a81610fa5565b929592945050506040919091013590565b6000806040838503121561119e57600080fd5b82356111a981610fa5565b915060208301356111b981610fa5565b809150509250929050565b600080600080608085870312156111da57600080fd5b84356111e581610fa5565b935060208501356111f581610fa5565b93969395505050506040820135916060013590565b6000806000806080858703121561122057600080fd5b843561122b81610fa5565b9350602085013561123b81610fa5565b9250604085013567ffffffffffffffff81111561125757600080fd5b61126387828801611020565b949793965093946060013593505050565b60208082526019908201527f4d7573742062652077616c6c6574206f776e65722f73656c6600000000000000604082015260600190565b634e487b7160e01b600052601260045260246000fd5b634e487b7160e01b600052601160045260246000fd5b6000826112e6576112e66112ab565b500490565b634e487b7160e01b600052603260045260246000fd5b600060018201611313576113136112c1565b5060010190565b600081611329576113296112c1565b506000190190565b600082611340576113406112ab565b500690565b80820180821115610c8357610c836112c1565b60006020828403121561136a57600080fd5b8151610fd781610fa5565b60006020828403121561138757600080fd5b81518015158114610fd757600080fd5b634e487b7160e01b600052602160045260246000fdfea2646970667358221220afdf966547b32701c18438b437088cf967cebe8fff26891170095ed9b3d9555c64736f6c63430008110033",
    "linkReferences": {}
  },
  "methodIdentifiers": {
    "addGuardian(address,address,uint256,uint256)": "c0d9f755",
    "adjustGuardianWeight(address,address,uint256)": "7f9fb6f3",
    "getGuardianThreshold(address)": "05b89277",
    "getSigners(bytes32,bytes,uint256)": "14b162a2",
    "guardianRecover(address,address,bytes,bytes32)": "ce23b995",
    "isGuardian(address,address)": "d4ee9734",
    "lockWallet(address)": "cd808d94",
    "removeGuardian(address,address)": "9b27a90e",
    "setGuardianThreshold(address,uint256)": "1338dd0d",
    "totalGuardians(address)": "ccefdcea",
    "unlock(address)": "2f6c493c"
  },
  "id": 13
}