{
  "abi": [
    {
      "anonymous": false,
      "inputs": [
        {
          "indexed": true,
          "internalType": "address",
          "name": "_service",
          "type": "address"
        },
        {
          "indexed": true,
          "internalType": "address",
          "name": "target",
          "type": "address"
        },
        {
          "indexed": true,
          "internalType": "uint256",
          "name": "value",
          "type": "uint256"
        },
        {
          "indexed": false,
          "internalType": "bytes",
          "name": "data",
          "type": "bytes"
        }
      ],
      "name": "Invoked",
      "type": "event"
    },
    {
      "anonymous": false,
      "inputs": [
        {
          "indexed": true,
          "internalType": "address",
          "name": "previousOwner",
          "type": "address"
        },
        {
          "indexed": true,
          "internalType": "address",
          "name": "newOwner",
          "type": "address"
        }
      ],
      "name": "OwnershipTransferred",
      "type": "event"
    },
    {
      "anonymous": false,
      "inputs": [
        {
          "indexed": true,
          "internalType": "address",
          "name": "service",
          "type": "address"
        }
      ],
      "name": "ServiceAuthorised",
      "type": "event"
    },
    {
      "anonymous": false,
      "inputs": [
        {
          "indexed": true,
          "internalType": "address",
          "name": "service",
          "type": "address"
        }
      ],
      "name": "ServiceRevoked",
      "type": "event"
    },
    {
      "stateMutability": "payable",
      "type": "fallback"
    },
    {
      "inputs": [
        {
          "internalType": "address",
          "name": "_service",
          "type": "address"
        }
      ],
      "name": "addService",
      "outputs": [],
      "stateMutability": "nonpayable",
      "type": "function"
    },
    {
      "inputs": [
        {
          "internalType": "address",
          "name": "",
          "type": "address"
        }
      ],
      "name": "authorised",
      "outputs": [
        {
          "internalType": "bool",
          "name": "",
          "type": "bool"
        }
      ],
      "stateMutability": "view",
      "type": "function"
    },
    {
      "inputs": [
        {
          "internalType": "bytes4",
          "name": "_signature",
          "type": "bytes4"
        }
      ],
      "name": "callEnabled",
      "outputs": [
        {
          "internalType": "address",
          "name": "",
          "type": "address"
        }
      ],
      "stateMutability": "view",
      "type": "function"
    },
    {
      "inputs": [
        {
          "internalType": "address",
          "name": "_module",
          "type": "address"
        },
        {
          "internalType": "bytes4",
          "name": "",
          "type": "bytes4"
        }
      ],
      "name": "enableStaticCall",
      "outputs": [],
      "stateMutability": "nonpayable",
      "type": "function"
    },
    {
      "inputs": [
        {
          "internalType": "address",
          "name": "_owner",
          "type": "address"
        },
        {
          "internalType": "address[]",
          "name": "_services",
          "type": "address[]"
        }
      ],
      "name": "init",
      "outputs": [],
      "stateMutability": "nonpayable",
      "type": "function"
    },
    {
      "inputs": [],
      "name": "initialised",
      "outputs": [
        {
          "internalType": "bool",
          "name": "",
          "type": "bool"
        }
      ],
      "stateMutability": "view",
      "type": "function"
    },
    {
      "inputs": [
        {
          "internalType": "address",
          "name": "_target",
          "type": "address"
        },
        {
          "internalType": "uint256",
          "name": "_value",
          "type": "uint256"
        },
        {
          "internalType": "bytes",
          "name": "_data",
          "type": "bytes"
        }
      ],
      "name": "invoke",
      "outputs": [
        {
          "internalType": "bytes",
          "name": "_result",
          "type": "bytes"
        }
      ],
      "stateMutability": "nonpayable",
      "type": "function"
    },
    {
      "inputs": [],
      "name": "owner",
      "outputs": [
        {
          "internalType": "address",
          "name": "",
          "type": "address"
        }
      ],
      "stateMutability": "view",
      "type": "function"
    },
    {
      "inputs": [
        {
          "internalType": "address",
          "name": "_service",
          "type": "address"
        }
      ],
      "name": "revokeService",
      "outputs": [],
      "stateMutability": "nonpayable",
      "type": "function"
    },
    {
      "inputs": [],
      "name": "services",
      "outputs": [
        {
          "internalType": "uint256",
          "name": "",
          "type": "uint256"
        }
      ],
      "stateMutability": "view",
      "type": "function"
    },
    {
      "inputs": [],
      "name": "staticCallExecutor",
      "outputs": [
        {
          "internalType": "address",
          "name": "",
          "type": "address"
        }
      ],
      "stateMutability": "view",
      "type": "function"
    },
    {
      "inputs": [
        {
          "internalType": "address",
          "name": "_newOwner",
          "type": "address"
        }
      ],
      "name": "transferOwner",
      "outputs": [],
      "stateMutability": "nonpayable",
      "type": "function"
    },
    {
      "stateMutability": "payable",
      "type": "receive"
    }
  ],
  "bytecode": {
    "object": "0x608060405234801561001057600080fd5b50610d3a806100206000396000f3fe6080604052600436106100ab5760003560e01c80637b2b30e3116100645780637b2b30e31461024b5780638da5cb5b1461026f5780638f6f033214610294578063a31fb7a2146102c1578063d6eb1bbf146102e1578063dbada58014610311576100b2565b806307003bb41461016457806313da30b2146101935780633c5a3cea146101b35780634fb2e45d146101d35780635372a9ce146101f35780636e474be714610213576100b2565b366100b257005b60006100c96000356001600160e01b031916610331565b90506001600160a01b03811615610162576001600160a01b03811660009081526020819052604090205460ff1661013e5760405162461bcd60e51b8152602060048201526014602482015273556e617574686f72697a6564207365727669636560601b60448201526064015b60405180910390fd5b3660008037600080366000845afa3d6000803e80801561015d573d6000f35b3d6000fd5b005b34801561017057600080fd5b5060025461017e9060ff1681565b60405190151581526020015b60405180910390f35b34801561019f57600080fd5b506101626101ae366004610a45565b6103d0565b3480156101bf57600080fd5b506101626101ce366004610a78565b6104b3565b3480156101df57600080fd5b506101626101ee366004610afe565b610605565b3480156101ff57600080fd5b5061016261020e366004610afe565b6106d8565b34801561021f57600080fd5b50600354610233906001600160a01b031681565b6040516001600160a01b03909116815260200161018a565b34801561025757600080fd5b5061026160015481565b60405190815260200161018a565b34801561027b57600080fd5b506002546102339061010090046001600160a01b031681565b3480156102a057600080fd5b506102b46102af366004610b20565b6107d6565b60405161018a9190610ba7565b3480156102cd57600080fd5b506102336102dc366004610bf5565b610331565b3480156102ed57600080fd5b5061017e6102fc366004610afe565b60006020819052908152604090205460ff1681565b34801561031d57600080fd5b5061016261032c366004610afe565b6108d2565b6003546000906001600160a01b031680158015906103bc575060405163096d424d60e21b81526001600160e01b0319841660048201526001600160a01b038216906325b5093490602401602060405180830381865afa158015610398573d6000803e3d6000fd5b505050506040513d601f19601f820116820180604052508101906103bc9190610c10565b156103c75792915050565b50600092915050565b3360009081526020819052604090205460ff166103ff5760405162461bcd60e51b815260040161013590610c32565b6003546001600160a01b03838116911614610490576001600160a01b03821660009081526020819052604090205460ff166104745760405162461bcd60e51b81526020600482015260156024820152742ab730baba3437b934bd32b21032bc32b1baba37b960591b6044820152606401610135565b600380546001600160a01b0319166001600160a01b0384161790555b50600380546001600160a01b0319166001600160a01b0392909216919091179055565b60025460ff161580156104c65750600154155b6105125760405162461bcd60e51b815260206004820152601a60248201527f57616c6c657420616c726561647920696e697469616c697365640000000000006044820152606401610135565b6002805460ff1916600190811790915581905560005b818110156105c95730635372a9ce84848481811061054857610548610c69565b905060200201602081019061055d9190610afe565b6040516001600160e01b031960e084901b1681526001600160a01b039091166004820152602401600060405180830381600087803b15801561059e57600080fd5b505af11580156105b2573d6000803e3d6000fd5b5050505080806105c190610c95565b915050610528565b506040516001600160a01b038416906000907f8be0079c531659141344cd1fd0a4f28419497f9722a3daafe3b4186f6b6457e0908290a3505050565b3360009081526020819052604090205460ff166106345760405162461bcd60e51b815260040161013590610c32565b6001600160a01b03811661067c5760405162461bcd60e51b815260206004820152600f60248201526e496e76616c6964206164647265737360881b6044820152606401610135565b60028054610100600160a81b0319166101006001600160a01b03848116828102939093179384905560405192939190910416907f8be0079c531659141344cd1fd0a4f28419497f9722a3daafe3b4186f6b6457e090600090a350565b3360009081526020819052604090205460ff166107075760405162461bcd60e51b815260040161013590610c32565b6001600160a01b03811660009081526020819052604090205460ff16156107685760405162461bcd60e51b815260206004820152601560248201527414d95c9d9a58d948185b1c9958591e481859191959605a1b6044820152606401610135565b6001600160a01b0381166000908152602081905260408120805460ff1916600190811790915580549161079a83610c95565b90915550506040516001600160a01b038216907f24f732a5a9a2087f84e34d6370d03476ac85bbecaf33f9559b7c50d1a6b1bbc590600090a250565b3360009081526020819052604090205460609060ff166108085760405162461bcd60e51b815260040161013590610c32565b6000856001600160a01b0316858585604051610825929190610cae565b60006040518083038185875af1925050503d8060008114610862576040519150601f19603f3d011682016040523d82523d6000602084013e610867565b606091505b50925090508061087b573d6000803e3d6000fd5b84866001600160a01b0316336001600160a01b03167f7d2476ab50663f025cff0be85655bcf355f62768615c0c478f3cd5293f80736587876040516108c1929190610cbe565b60405180910390a450949350505050565b3360009081526020819052604090205460ff166109015760405162461bcd60e51b815260040161013590610c32565b6001600160a01b03811660009081526020819052604090205460ff1661095d5760405162461bcd60e51b815260206004820152601160248201527014d95c9d9a58d9481b9bdd081859191959607a1b6044820152606401610135565b6000600154116109a75760405162461bcd60e51b81526020600482015260156024820152744e6f20736572766963657320746f207265766f6b6560581b6044820152606401610135565b6001600160a01b0381166000908152602081905260408120805460ff1916905560018054916109d583610ced565b90915550506040516001600160a01b038216907f7b6f146cbceaa98ba4b1c6416d823b72bb87cd8ca9009ff4bda62998e7e9fdb090600090a250565b80356001600160a01b0381168114610a2857600080fd5b919050565b80356001600160e01b031981168114610a2857600080fd5b60008060408385031215610a5857600080fd5b610a6183610a11565b9150610a6f60208401610a2d565b90509250929050565b600080600060408486031215610a8d57600080fd5b610a9684610a11565b9250602084013567ffffffffffffffff80821115610ab357600080fd5b818601915086601f830112610ac757600080fd5b813581811115610ad657600080fd5b8760208260051b8501011115610aeb57600080fd5b6020830194508093505050509250925092565b600060208284031215610b1057600080fd5b610b1982610a11565b9392505050565b60008060008060608587031215610b3657600080fd5b610b3f85610a11565b935060208501359250604085013567ffffffffffffffff80821115610b6357600080fd5b818701915087601f830112610b7757600080fd5b813581811115610b8657600080fd5b886020828501011115610b9857600080fd5b95989497505060200194505050565b600060208083528351808285015260005b81811015610bd457858101830151858201604001528201610bb8565b506000604082860101526040601f19601f8301168501019250505092915050565b600060208284031215610c0757600080fd5b610b1982610a2d565b600060208284031215610c2257600080fd5b81518015158114610b1957600080fd5b60208082526019908201527f4e6f7420616e20617574686f7269736564207365727669636500000000000000604082015260600190565b634e487b7160e01b600052603260045260246000fd5b634e487b7160e01b600052601160045260246000fd5b600060018201610ca757610ca7610c7f565b5060010190565b8183823760009101908152919050565b60208152816020820152818360408301376000818301604090810191909152601f909201601f19160101919050565b600081610cfc57610cfc610c7f565b50600019019056fea2646970667358221220f67c4a765f2548e2473c3791c1d2ab3d2b443c79f47e84d0682622fc16ced6c964736f6c63430008110033",
    "linkReferences": {}
  },
  "methodIdentifiers": {
    "addService(address)": "5372a9ce",
    "authorised(address)": "d6eb1bbf",
    "callEnabled(bytes4)": "a31fb7a2",
    "enableStaticCall(address,bytes4)": "13da30b2",
    "init(address,address[])": "3c5a3cea",
    "initialised()": "07003bb4",
    "invoke(address,uint256,bytes)": "8f6f0332",
    "owner()": "8da5cb5b",
    "revokeService(address)": "dbada580",
    "services()": "7b2b30e3",
    "staticCallExecutor()": "6e474be7",
    "transferOwner(address)": "4fb2e45d"
  },
  "id": 1
}