{
  "abi": [
    {
      "inputs": [
        {
          "internalType": "bytes32",
          "name": "dataHash",
          "type": "bytes32"
        },
        {
          "internalType": "bytes",
          "name": "signatures",
          "type": "bytes"
        },
        {
          "internalType": "uint256",
          "name": "requiredSignatures",
          "type": "uint256"
        }
      ],
      "name": "getSigners",
      "outputs": [
        {
          "internalType": "address[]",
          "name": "",
          "type": "address[]"
        }
      ],
      "stateMutability": "pure",
      "type": "function"
    }
  ],
  "bytecode": {
    "object": "0x608060405234801561001057600080fd5b506105bb806100206000396000f3fe608060405234801561001057600080fd5b506004361061002b5760003560e01c806314b162a214610030575b600080fd5b61004361003e3660046103ff565b610059565b60405161005091906104c3565b60405180910390f35b6060816041845161006a9190610510565b146100bc5760405162461bcd60e51b815260206004820152601960248201527f496e76616c6964207369676e617475726573206c656e6774680000000000000060448201526064015b60405180910390fd5b600082116101185760405162461bcd60e51b8152602060048201526024808201527f5468657265206d757374206265206d6f7265207468616e2030207369676e61746044820152637572657360e01b60648201526084016100b3565b606060005b838110156101a757600080600061014d888560419081029190910160208101516040820151919092015160ff1692565b92509250925061015f898484846101b0565b85858151811061017157610171610532565b60200260200101906001600160a01b031690816001600160a01b031681525050505050808061019f90610548565b91505061011d565b50949350505050565b60008060006101c1878787876101d8565b915091506101ce8161029c565b5095945050505050565b6000807f7fffffffffffffffffffffffffffffff5d576e7357a4501ddfe92f46681b20a083111561020f5750600090506003610293565b6040805160008082526020820180845289905260ff881692820192909252606081018690526080810185905260019060a0016020604051602081039080840390855afa158015610263573d6000803e3d6000fd5b5050604051601f1901519150506001600160a01b03811661028c57600060019250925050610293565b9150600090505b94509492505050565b60008160048111156102b0576102b061056f565b036102b85750565b60018160048111156102cc576102cc61056f565b036103195760405162461bcd60e51b815260206004820152601860248201527f45434453413a20696e76616c6964207369676e6174757265000000000000000060448201526064016100b3565b600281600481111561032d5761032d61056f565b0361037a5760405162461bcd60e51b815260206004820152601f60248201527f45434453413a20696e76616c6964207369676e6174757265206c656e6774680060448201526064016100b3565b600381600481111561038e5761038e61056f565b036103e65760405162461bcd60e51b815260206004820152602260248201527f45434453413a20696e76616c6964207369676e6174757265202773272076616c604482015261756560f01b60648201526084016100b3565b50565b634e487b7160e01b600052604160045260246000fd5b60008060006060848603121561041457600080fd5b83359250602084013567ffffffffffffffff8082111561043357600080fd5b818601915086601f83011261044757600080fd5b813581811115610459576104596103e9565b604051601f8201601f19908116603f01168101908382118183101715610481576104816103e9565b8160405282815289602084870101111561049a57600080fd5b826020860160208301376000602084830101528096505050505050604084013590509250925092565b6020808252825182820181905260009190848201906040850190845b818110156105045783516001600160a01b0316835292840192918401916001016104df565b50909695505050505050565b60008261052d57634e487b7160e01b600052601260045260246000fd5b500490565b634e487b7160e01b600052603260045260246000fd5b60006001820161056857634e487b7160e01b600052601160045260246000fd5b5060010190565b634e487b7160e01b600052602160045260246000fdfea264697066735822122016de51fd52f75251b795f70723a4cf7ec7bdfde14c40727c4cd186f3e942bc3164736f6c63430008110033",
    "linkReferences": {}
  },
  "methodIdentifiers": {
    "getSigners(bytes32,bytes,uint256)": "14b162a2"
  },
  "id": 3
}